{
  "contractName": "Roulette",
  "abi": [
    {
      "inputs": [],
      "stateMutability": "payable",
      "type": "constructor",
      "payable": true
    },
    {
      "anonymous": false,
      "inputs": [
        {
          "indexed": true,
          "internalType": "address",
          "name": "_from",
          "type": "address"
        },
        {
          "indexed": false,
          "internalType": "uint256",
          "name": "_value",
          "type": "uint256"
        }
      ],
      "name": "MadeBet",
      "type": "event"
    },
    {
      "anonymous": false,
      "inputs": [
        {
          "indexed": false,
          "internalType": "uint256",
          "name": "number",
          "type": "uint256"
        }
      ],
      "name": "RandomNumber",
      "type": "event"
    },
    {
      "inputs": [
        {
          "internalType": "uint256",
          "name": "",
          "type": "uint256"
        }
      ],
      "name": "bets",
      "outputs": [
        {
          "internalType": "address",
          "name": "player",
          "type": "address"
        },
        {
          "internalType": "uint8",
          "name": "number",
          "type": "uint8"
        }
      ],
      "stateMutability": "view",
      "type": "function",
      "constant": true
    },
    {
      "inputs": [],
      "name": "getStatus",
      "outputs": [
        {
          "internalType": "uint256",
          "name": "",
          "type": "uint256"
        },
        {
          "internalType": "uint256",
          "name": "",
          "type": "uint256"
        },
        {
          "internalType": "uint256",
          "name": "",
          "type": "uint256"
        },
        {
          "internalType": "uint256",
          "name": "",
          "type": "uint256"
        },
        {
          "internalType": "uint256",
          "name": "",
          "type": "uint256"
        },
        {
          "components": [
            {
              "internalType": "address",
              "name": "player",
              "type": "address"
            },
            {
              "internalType": "uint8",
              "name": "number",
              "type": "uint8"
            }
          ],
          "internalType": "struct Roulette.Bet[]",
          "name": "",
          "type": "tuple[]"
        }
      ],
      "stateMutability": "view",
      "type": "function",
      "constant": true
    },
    {
      "inputs": [
        {
          "internalType": "uint8",
          "name": "number",
          "type": "uint8"
        }
      ],
      "name": "bet",
      "outputs": [],
      "stateMutability": "payable",
      "type": "function",
      "payable": true
    },
    {
      "inputs": [],
      "name": "spinWheel",
      "outputs": [],
      "stateMutability": "nonpayable",
      "type": "function"
    }
  ],
  "bytecode": "0x608060405233600260006101000a81548173ffffffffffffffffffffffffffffffffffffffff021916908373ffffffffffffffffffffffffffffffffffffffff16021790555042600181905550662386f26fc10000600081905550610e63806100696000396000f3fe60806040526004361061003f5760003560e01c806315ecef921461004457806322af00fa1461005b5780634e69d56014610099578063d0821b0e146100c9575b600080fd5b34801561005057600080fd5b506100596100e5565b005b34801561006757600080fd5b50610082600480360381019061007d919061080c565b6103e7565b604051610090929190610896565b60405180910390f35b3480156100a557600080fd5b506100ae610444565b6040516100c0969594939291906109ca565b60405180910390f35b6100e360048036038101906100de9190610a5e565b6105fc565b005b6000600680549050116100f757600080fd5b600154421161010557600080fd5b42600181905550600060014361011b9190610aba565b4090506000600660016006805490506101349190610aba565b8154811061014557610144610aee565b5b906000526020600020016040518060400160405290816000820160009054906101000a900473ffffffffffffffffffffffffffffffffffffffff1673ffffffffffffffffffffffffffffffffffffffff1673ffffffffffffffffffffffffffffffffffffffff1681526020016000820160149054906101000a900460ff1660ff1660ff16815250509050600060254284846000015185602001516040516020016101f29493929190610be7565b6040516020818303038152906040528051906020012060001c6102159190610c64565b905060005b60068054905081101561039c576000806006838154811061023e5761023d610aee565b5b906000526020600020016040518060400160405290816000820160009054906101000a900473ffffffffffffffffffffffffffffffffffffffff1673ffffffffffffffffffffffffffffffffffffffff1673ffffffffffffffffffffffffffffffffffffffff1681526020016000820160149054906101000a900460ff1660ff1660ff1681525050905083816020015160ff16036102db57600191505b8115610387574760036000836000015173ffffffffffffffffffffffffffffffffffffffff1673ffffffffffffffffffffffffffffffffffffffff16815260200190815260200160002060008282546103349190610c95565b92505081905550806000015173ffffffffffffffffffffffffffffffffffffffff166108fc479081150290604051600060405180830381858888f19350505050158015610385573d6000803e3d6000fd5b505b5050808061039490610ceb565b91505061021a565b50600660006103ab919061072b565b7fec6cdc8e735e4069f6e89062582f3e5532a8e71373e7ef2962fa916cf2af21f2816040516103da9190610d33565b60405180910390a1505050565b600681815481106103f757600080fd5b906000526020600020016000915090508060000160009054906101000a900473ffffffffffffffffffffffffffffffffffffffff16908060000160149054906101000a900460ff16905082565b60008060008060006060600060068054905067ffffffffffffffff81111561046f5761046e610d4e565b5b6040519080825280602002602001820160405280156104a857816020015b61049561074c565b81526020019060019003908161048d5790505b50905060005b60068054905081101561058857600681815481106104cf576104ce610aee565b5b906000526020600020016040518060400160405290816000820160009054906101000a900473ffffffffffffffffffffffffffffffffffffffff1673ffffffffffffffffffffffffffffffffffffffff1673ffffffffffffffffffffffffffffffffffffffff1681526020016000820160149054906101000a900460ff1660ff1660ff168152505082828151811061056a57610569610aee565b5b6020026020010181905250808061058090610ceb565b9150506104ae565b506006805490506000546006805490506105a29190610d7d565b60015447600360003373ffffffffffffffffffffffffffffffffffffffff1673ffffffffffffffffffffffffffffffffffffffff168152602001908152602001600020548596509650965096509650965050909192939495565b600054341461060a57600080fd5b60008160ff16101561061b57600080fd5b600660405180604001604052803373ffffffffffffffffffffffffffffffffffffffff1681526020018360ff168152509080600181540180825580915050600190039060005260206000200160009091909190915060008201518160000160006101000a81548173ffffffffffffffffffffffffffffffffffffffff021916908373ffffffffffffffffffffffffffffffffffffffff16021790555060208201518160000160146101000a81548160ff021916908360ff16021790555050503373ffffffffffffffffffffffffffffffffffffffff167f716a1d648fe060da41f952c8fd593a5f22c99786d071582fa3489b36780d35e3826040516107209190610e12565b60405180910390a250565b5080546000825590600052602060002090810190610749919061077f565b50565b6040518060400160405280600073ffffffffffffffffffffffffffffffffffffffff168152602001600060ff1681525090565b5b808211156107cd57600080820160006101000a81549073ffffffffffffffffffffffffffffffffffffffff02191690556000820160146101000a81549060ff021916905550600101610780565b5090565b600080fd5b6000819050919050565b6107e9816107d6565b81146107f457600080fd5b50565b600081359050610806816107e0565b92915050565b600060208284031215610822576108216107d1565b5b6000610830848285016107f7565b91505092915050565b600073ffffffffffffffffffffffffffffffffffffffff82169050919050565b600061086482610839565b9050919050565b61087481610859565b82525050565b600060ff82169050919050565b6108908161087a565b82525050565b60006040820190506108ab600083018561086b565b6108b86020830184610887565b9392505050565b6108c8816107d6565b82525050565b600081519050919050565b600082825260208201905092915050565b6000819050602082019050919050565b61090381610859565b82525050565b6109128161087a565b82525050565b60408201600082015161092e60008501826108fa565b5060208201516109416020850182610909565b50505050565b60006109538383610918565b60408301905092915050565b6000602082019050919050565b6000610977826108ce565b61098181856108d9565b935061098c836108ea565b8060005b838110156109bd5781516109a48882610947565b97506109af8361095f565b925050600181019050610990565b5085935050505092915050565b600060c0820190506109df60008301896108bf565b6109ec60208301886108bf565b6109f960408301876108bf565b610a0660608301866108bf565b610a1360808301856108bf565b81810360a0830152610a25818461096c565b9050979650505050505050565b610a3b8161087a565b8114610a4657600080fd5b50565b600081359050610a5881610a32565b92915050565b600060208284031215610a7457610a736107d1565b5b6000610a8284828501610a49565b91505092915050565b7f4e487b7100000000000000000000000000000000000000000000000000000000600052601160045260246000fd5b6000610ac5826107d6565b9150610ad0836107d6565b925082821015610ae357610ae2610a8b565b5b828203905092915050565b7f4e487b7100000000000000000000000000000000000000000000000000000000600052603260045260246000fd5b6000819050919050565b610b38610b33826107d6565b610b1d565b82525050565b6000819050919050565b6000819050919050565b610b63610b5e82610b3e565b610b48565b82525050565b60008160601b9050919050565b6000610b8182610b69565b9050919050565b6000610b9382610b76565b9050919050565b610bab610ba682610859565b610b88565b82525050565b60008160f81b9050919050565b6000610bc982610bb1565b9050919050565b610be1610bdc8261087a565b610bbe565b82525050565b6000610bf38287610b27565b602082019150610c038286610b52565b602082019150610c138285610b9a565b601482019150610c238284610bd0565b60018201915081905095945050505050565b7f4e487b7100000000000000000000000000000000000000000000000000000000600052601260045260246000fd5b6000610c6f826107d6565b9150610c7a836107d6565b925082610c8a57610c89610c35565b5b828206905092915050565b6000610ca0826107d6565b9150610cab836107d6565b9250827fffffffffffffffffffffffffffffffffffffffffffffffffffffffffffffffff03821115610ce057610cdf610a8b565b5b828201905092915050565b6000610cf6826107d6565b91507fffffffffffffffffffffffffffffffffffffffffffffffffffffffffffffffff8203610d2857610d27610a8b565b5b600182019050919050565b6000602082019050610d4860008301846108bf565b92915050565b7f4e487b7100000000000000000000000000000000000000000000000000000000600052604160045260246000fd5b6000610d88826107d6565b9150610d93836107d6565b9250817fffffffffffffffffffffffffffffffffffffffffffffffffffffffffffffffff0483118215151615610dcc57610dcb610a8b565b5b828202905092915050565b6000819050919050565b6000610dfc610df7610df28461087a565b610dd7565b6107d6565b9050919050565b610e0c81610de1565b82525050565b6000602082019050610e276000830184610e03565b9291505056fea2646970667358221220d6bcd199a495fe2dad650073a4f0cf1957373041cc9048ec1877f722b6f0ec0764736f6c634300080d0033",
  "immutableReferences": {},
  "source": "// SPDX-License-Identifier: MIT\npragma solidity >=0.4.22 <0.9.0;\n\ncontract Roulette {\n    uint256 betAmount;\n    uint256 nextRoundTimestamp;\n    address creator;\n    mapping(address => uint256) winnings;\n    uint8[] payouts;\n    uint8[] numberRange;\n\n    struct Bet {\n        address player;\n        uint8 number;\n    }\n\n    Bet[] public bets;\n\n    constructor() payable {\n        creator = msg.sender;\n        nextRoundTimestamp = block.timestamp;\n        betAmount = 10000000000000000; /* 0.01 ether */\n    }\n\n    event RandomNumber(uint256 number);\n\n    event MadeBet(address indexed _from, uint256 _value);\n\n    function getStatus()\n        public\n        view\n        returns (\n            uint256,\n            uint256,\n            uint256,\n            uint256,\n            uint256,\n            Bet[] memory\n        )\n    {        \n\n        Bet[] memory b = new Bet[](bets.length);\n        for (uint i = 0; i < bets.length; i++) {\n            b[i] = bets[i];\n        }\n\n        return (\n            bets.length, // number of active bets\n            bets.length * betAmount, // value of active bets\n            nextRoundTimestamp, // when can we play again\n            address(this).balance, // roulette balance\n            winnings[msg.sender], // winnings of player\n            b\n        );\n    }\n\n    function bet(uint8 number) public payable {\n        require(msg.value == betAmount);\n        require(number >= 0);\n\n        bets.push(Bet({player: msg.sender, number: number}));\n\n        emit MadeBet(msg.sender, number);\n    }\n\n    function spinWheel() public {\n        /* are there any bets? */\n        require(bets.length > 0);\n        /* are we allowed to spin the wheel? */\n        require(block.timestamp > nextRoundTimestamp);\n        /* next time we are allowed to spin the wheel again */\n        nextRoundTimestamp = block.timestamp;\n        /* calculate 'random' number */\n        bytes32 hash = blockhash(block.number - 1);\n        Bet memory lb = bets[bets.length - 1];\n\n        uint256 number = uint256(\n            keccak256(\n                abi.encodePacked(\n                    block.timestamp,\n                    hash,\n                    lb.player,\n                    lb.number\n                )\n            )\n        ) % 37;\n\n        for (uint256 i = 0; i < bets.length; i++) {\n            bool won = false;\n            Bet memory b = bets[i];\n\n            if (b.number == number) {\n                won = true;\n            }\n\n            if (won) {\n                winnings[b.player] += address(this).balance;\n                payable(b.player).transfer(address(this).balance);\n            }\n        }\n\n        /* delete all bets */\n        delete bets;\n\n        emit RandomNumber(number);\n    }\n}\n",
  "sourcePath": "/home/lzharskaja@scnsoft.com/PhpstormProjects/eth-roulette-for-blockchain-presentation/contracts/Roulette.sol",
  "compiler": {
    "name": "solc",
    "version": "0.8.13+commit.abaa5c0e.Emscripten.clang"
  },
  "schemaVersion": "3.4.15",
  "updatedAt": "2023-08-08T12:08:14.298Z",
  "networkType": "ethereum",
  "devdoc": {
    "kind": "dev",
    "methods": {},
    "version": 1
  },
  "userdoc": {
    "kind": "user",
    "methods": {},
    "version": 1
  }
}