{
  "contractName": "Roulette",
  "abi": [
    {
      "inputs": [],
      "stateMutability": "payable",
      "type": "constructor",
      "payable": true
    },
    {
      "anonymous": false,
      "inputs": [
        {
          "indexed": true,
          "internalType": "address",
          "name": "_from",
          "type": "address"
        },
        {
          "indexed": false,
          "internalType": "uint256",
          "name": "_value",
          "type": "uint256"
        }
      ],
      "name": "MadeBet",
      "type": "event"
    },
    {
      "anonymous": false,
      "inputs": [
        {
          "indexed": false,
          "internalType": "uint256",
          "name": "number",
          "type": "uint256"
        }
      ],
      "name": "RandomNumber",
      "type": "event"
    },
    {
      "anonymous": false,
      "inputs": [
        {
          "indexed": false,
          "internalType": "address",
          "name": "player",
          "type": "address"
        },
        {
          "indexed": true,
          "internalType": "uint256",
          "name": "date",
          "type": "uint256"
        },
        {
          "indexed": true,
          "internalType": "uint256",
          "name": "amount",
          "type": "uint256"
        }
      ],
      "name": "Won",
      "type": "event"
    },
    {
      "inputs": [
        {
          "internalType": "uint256",
          "name": "",
          "type": "uint256"
        }
      ],
      "name": "bets",
      "outputs": [
        {
          "internalType": "address",
          "name": "player",
          "type": "address"
        },
        {
          "internalType": "uint8",
          "name": "number",
          "type": "uint8"
        }
      ],
      "stateMutability": "view",
      "type": "function",
      "constant": true
    },
    {
      "inputs": [
        {
          "internalType": "uint256",
          "name": "",
          "type": "uint256"
        }
      ],
      "name": "winners",
      "outputs": [
        {
          "internalType": "address",
          "name": "player",
          "type": "address"
        },
        {
          "internalType": "uint256",
          "name": "timestamp",
          "type": "uint256"
        },
        {
          "internalType": "uint256",
          "name": "amount",
          "type": "uint256"
        }
      ],
      "stateMutability": "view",
      "type": "function",
      "constant": true
    },
    {
      "inputs": [],
      "name": "getStatus",
      "outputs": [
        {
          "internalType": "uint256",
          "name": "",
          "type": "uint256"
        },
        {
          "internalType": "uint256",
          "name": "",
          "type": "uint256"
        },
        {
          "internalType": "uint256",
          "name": "",
          "type": "uint256"
        },
        {
          "internalType": "uint256",
          "name": "",
          "type": "uint256"
        },
        {
          "internalType": "uint256",
          "name": "",
          "type": "uint256"
        },
        {
          "components": [
            {
              "internalType": "address",
              "name": "player",
              "type": "address"
            },
            {
              "internalType": "uint8",
              "name": "number",
              "type": "uint8"
            }
          ],
          "internalType": "struct Roulette.Bet[]",
          "name": "",
          "type": "tuple[]"
        }
      ],
      "stateMutability": "view",
      "type": "function",
      "constant": true
    },
    {
      "inputs": [],
      "name": "getWinners",
      "outputs": [
        {
          "components": [
            {
              "internalType": "address",
              "name": "player",
              "type": "address"
            },
            {
              "internalType": "uint256",
              "name": "timestamp",
              "type": "uint256"
            },
            {
              "internalType": "uint256",
              "name": "amount",
              "type": "uint256"
            }
          ],
          "internalType": "struct Roulette.Winner[]",
          "name": "",
          "type": "tuple[]"
        }
      ],
      "stateMutability": "view",
      "type": "function",
      "constant": true
    },
    {
      "inputs": [
        {
          "internalType": "uint8",
          "name": "number",
          "type": "uint8"
        }
      ],
      "name": "bet",
      "outputs": [],
      "stateMutability": "payable",
      "type": "function",
      "payable": true
    },
    {
      "inputs": [],
      "name": "spinWheel",
      "outputs": [],
      "stateMutability": "nonpayable",
      "type": "function"
    }
  ],
  "bytecode": "0x608060405233600260006101000a81548173ffffffffffffffffffffffffffffffffffffffff021916908373ffffffffffffffffffffffffffffffffffffffff16021790555042600181905550662386f26fc10000600081905550611321806100696000396000f3fe6080604052600436106100555760003560e01c806315ecef921461005a57806322af00fa146100715780634e69d560146100af578063a2fb1175146100df578063d0821b0e1461011e578063df15c37e1461013a575b600080fd5b34801561006657600080fd5b5061006f610165565b005b34801561007d57600080fd5b5061009860048036038101906100939190610b56565b610561565b6040516100a6929190610be0565b60405180910390f35b3480156100bb57600080fd5b506100c46105be565b6040516100d696959493929190610d14565b60405180910390f35b3480156100eb57600080fd5b5061010660048036038101906101019190610b56565b610776565b60405161011593929190610d7c565b60405180910390f35b61013860048036038101906101339190610ddf565b6107d0565b005b34801561014657600080fd5b5061014f6108ff565b60405161015c9190610f0c565b60405180910390f35b60006007805490501161017757600080fd5b600154421161018557600080fd5b42600181905550600060014361019b9190610f5d565b4090506000600760016007805490506101b49190610f5d565b815481106101c5576101c4610f91565b5b906000526020600020016040518060400160405290816000820160009054906101000a900473ffffffffffffffffffffffffffffffffffffffff1673ffffffffffffffffffffffffffffffffffffffff1673ffffffffffffffffffffffffffffffffffffffff1681526020016000820160149054906101000a900460ff1660ff1660ff1681525050905060006025428484600001518560200151604051602001610272949392919061108a565b6040516020818303038152906040528051906020012060001c6102959190611107565b905060005b60078054905081101561051657600080600783815481106102be576102bd610f91565b5b906000526020600020016040518060400160405290816000820160009054906101000a900473ffffffffffffffffffffffffffffffffffffffff1673ffffffffffffffffffffffffffffffffffffffff1673ffffffffffffffffffffffffffffffffffffffff1681526020016000820160149054906101000a900460ff1660ff1660ff1681525050905083816020015160ff160361035b57600191505b81156105015760066040518060600160405280836000015173ffffffffffffffffffffffffffffffffffffffff16815260200142815260200147815250908060018154018082558091505060019003906000526020600020906003020160009091909190915060008201518160000160006101000a81548173ffffffffffffffffffffffffffffffffffffffff021916908373ffffffffffffffffffffffffffffffffffffffff160217905550602082015181600101556040820151816002015550504760036000836000015173ffffffffffffffffffffffffffffffffffffffff1673ffffffffffffffffffffffffffffffffffffffff16815260200190815260200160002060008282546104719190611138565b92505081905550806000015173ffffffffffffffffffffffffffffffffffffffff166108fc479081150290604051600060405180830381858888f193505050501580156104c2573d6000803e3d6000fd5b5047427ffdc49939175858b2bb557093a7d52fa6b6f3aad917d282d61758fab4805f102a83600001516040516104f8919061118e565b60405180910390a35b5050808061050e906111a9565b91505061029a565b50600760006105259190610a3e565b7fec6cdc8e735e4069f6e89062582f3e5532a8e71373e7ef2962fa916cf2af21f28160405161055491906111f1565b60405180910390a1505050565b6007818154811061057157600080fd5b906000526020600020016000915090508060000160009054906101000a900473ffffffffffffffffffffffffffffffffffffffff16908060000160149054906101000a900460ff16905082565b60008060008060006060600060078054905067ffffffffffffffff8111156105e9576105e861120c565b5b60405190808252806020026020018201604052801561062257816020015b61060f610a5f565b8152602001906001900390816106075790505b50905060005b600780549050811015610702576007818154811061064957610648610f91565b5b906000526020600020016040518060400160405290816000820160009054906101000a900473ffffffffffffffffffffffffffffffffffffffff1673ffffffffffffffffffffffffffffffffffffffff1673ffffffffffffffffffffffffffffffffffffffff1681526020016000820160149054906101000a900460ff1660ff1660ff16815250508282815181106106e4576106e3610f91565b5b602002602001018190525080806106fa906111a9565b915050610628565b5060078054905060005460078054905061071c919061123b565b60015447600360003373ffffffffffffffffffffffffffffffffffffffff1673ffffffffffffffffffffffffffffffffffffffff168152602001908152602001600020548596509650965096509650965050909192939495565b6006818154811061078657600080fd5b90600052602060002090600302016000915090508060000160009054906101000a900473ffffffffffffffffffffffffffffffffffffffff16908060010154908060020154905083565b60005434146107de57600080fd5b60008160ff1610156107ef57600080fd5b600760405180604001604052803373ffffffffffffffffffffffffffffffffffffffff1681526020018360ff168152509080600181540180825580915050600190039060005260206000200160009091909190915060008201518160000160006101000a81548173ffffffffffffffffffffffffffffffffffffffff021916908373ffffffffffffffffffffffffffffffffffffffff16021790555060208201518160000160146101000a81548160ff021916908360ff16021790555050503373ffffffffffffffffffffffffffffffffffffffff167f716a1d648fe060da41f952c8fd593a5f22c99786d071582fa3489b36780d35e3826040516108f491906112d0565b60405180910390a250565b6060600060068054905067ffffffffffffffff8111156109225761092161120c565b5b60405190808252806020026020018201604052801561095b57816020015b610948610a92565b8152602001906001900390816109405790505b50905060005b600680549050811015610a36576006818154811061098257610981610f91565b5b90600052602060002090600302016040518060600160405290816000820160009054906101000a900473ffffffffffffffffffffffffffffffffffffffff1673ffffffffffffffffffffffffffffffffffffffff1673ffffffffffffffffffffffffffffffffffffffff16815260200160018201548152602001600282015481525050828281518110610a1857610a17610f91565b5b60200260200101819052508080610a2e906111a9565b915050610961565b508091505090565b5080546000825590600052602060002090810190610a5c9190610ac9565b50565b6040518060400160405280600073ffffffffffffffffffffffffffffffffffffffff168152602001600060ff1681525090565b6040518060600160405280600073ffffffffffffffffffffffffffffffffffffffff16815260200160008152602001600081525090565b5b80821115610b1757600080820160006101000a81549073ffffffffffffffffffffffffffffffffffffffff02191690556000820160146101000a81549060ff021916905550600101610aca565b5090565b600080fd5b6000819050919050565b610b3381610b20565b8114610b3e57600080fd5b50565b600081359050610b5081610b2a565b92915050565b600060208284031215610b6c57610b6b610b1b565b5b6000610b7a84828501610b41565b91505092915050565b600073ffffffffffffffffffffffffffffffffffffffff82169050919050565b6000610bae82610b83565b9050919050565b610bbe81610ba3565b82525050565b600060ff82169050919050565b610bda81610bc4565b82525050565b6000604082019050610bf56000830185610bb5565b610c026020830184610bd1565b9392505050565b610c1281610b20565b82525050565b600081519050919050565b600082825260208201905092915050565b6000819050602082019050919050565b610c4d81610ba3565b82525050565b610c5c81610bc4565b82525050565b604082016000820151610c786000850182610c44565b506020820151610c8b6020850182610c53565b50505050565b6000610c9d8383610c62565b60408301905092915050565b6000602082019050919050565b6000610cc182610c18565b610ccb8185610c23565b9350610cd683610c34565b8060005b83811015610d07578151610cee8882610c91565b9750610cf983610ca9565b925050600181019050610cda565b5085935050505092915050565b600060c082019050610d296000830189610c09565b610d366020830188610c09565b610d436040830187610c09565b610d506060830186610c09565b610d5d6080830185610c09565b81810360a0830152610d6f8184610cb6565b9050979650505050505050565b6000606082019050610d916000830186610bb5565b610d9e6020830185610c09565b610dab6040830184610c09565b949350505050565b610dbc81610bc4565b8114610dc757600080fd5b50565b600081359050610dd981610db3565b92915050565b600060208284031215610df557610df4610b1b565b5b6000610e0384828501610dca565b91505092915050565b600081519050919050565b600082825260208201905092915050565b6000819050602082019050919050565b610e4181610b20565b82525050565b606082016000820151610e5d6000850182610c44565b506020820151610e706020850182610e38565b506040820151610e836040850182610e38565b50505050565b6000610e958383610e47565b60608301905092915050565b6000602082019050919050565b6000610eb982610e0c565b610ec38185610e17565b9350610ece83610e28565b8060005b83811015610eff578151610ee68882610e89565b9750610ef183610ea1565b925050600181019050610ed2565b5085935050505092915050565b60006020820190508181036000830152610f268184610eae565b905092915050565b7f4e487b7100000000000000000000000000000000000000000000000000000000600052601160045260246000fd5b6000610f6882610b20565b9150610f7383610b20565b925082821015610f8657610f85610f2e565b5b828203905092915050565b7f4e487b7100000000000000000000000000000000000000000000000000000000600052603260045260246000fd5b6000819050919050565b610fdb610fd682610b20565b610fc0565b82525050565b6000819050919050565b6000819050919050565b61100661100182610fe1565b610feb565b82525050565b60008160601b9050919050565b60006110248261100c565b9050919050565b600061103682611019565b9050919050565b61104e61104982610ba3565b61102b565b82525050565b60008160f81b9050919050565b600061106c82611054565b9050919050565b61108461107f82610bc4565b611061565b82525050565b60006110968287610fca565b6020820191506110a68286610ff5565b6020820191506110b6828561103d565b6014820191506110c68284611073565b60018201915081905095945050505050565b7f4e487b7100000000000000000000000000000000000000000000000000000000600052601260045260246000fd5b600061111282610b20565b915061111d83610b20565b92508261112d5761112c6110d8565b5b828206905092915050565b600061114382610b20565b915061114e83610b20565b9250827fffffffffffffffffffffffffffffffffffffffffffffffffffffffffffffffff0382111561118357611182610f2e565b5b828201905092915050565b60006020820190506111a36000830184610bb5565b92915050565b60006111b482610b20565b91507fffffffffffffffffffffffffffffffffffffffffffffffffffffffffffffffff82036111e6576111e5610f2e565b5b600182019050919050565b60006020820190506112066000830184610c09565b92915050565b7f4e487b7100000000000000000000000000000000000000000000000000000000600052604160045260246000fd5b600061124682610b20565b915061125183610b20565b9250817fffffffffffffffffffffffffffffffffffffffffffffffffffffffffffffffff048311821515161561128a57611289610f2e565b5b828202905092915050565b6000819050919050565b60006112ba6112b56112b084610bc4565b611295565b610b20565b9050919050565b6112ca8161129f565b82525050565b60006020820190506112e560008301846112c1565b9291505056fea264697066735822122039dba97bf79f97c6fba56a9e8e9aa1105c2a71bf01e94b2e3b1fa10604a353b864736f6c634300080d0033",
  "immutableReferences": {},
  "source": "// SPDX-License-Identifier: MIT\npragma solidity >=0.4.22 <0.9.0;\n\ncontract Roulette {\n    uint256 betAmount;\n    uint256 nextRoundTimestamp;\n    address creator;\n    mapping(address => uint256) winnings;\n    uint8[] payouts;\n    uint8[] numberRange;\n    Winner[] public winners;\n\n    struct Bet {\n        address player;\n        uint8 number;\n    }\n\n    struct Winner {\n        address player;\n        uint256 timestamp;\n        uint256 amount;\n    }\n\n    Bet[] public bets;\n\n    constructor() payable {\n        creator = msg.sender;\n        nextRoundTimestamp = block.timestamp;\n        betAmount = 10000000000000000; /* 0.01 ether */\n    }\n\n    event RandomNumber(uint256 number);\n\n    event MadeBet(address indexed _from, uint256 _value);\n\n    event Won(\n        address player,\n        uint256 indexed date,\n        uint256 indexed amount\n    );\n\n    function getStatus()\n        public\n        view\n        returns (\n            uint256,\n            uint256,\n            uint256,\n            uint256,\n            uint256,\n            Bet[] memory\n        )\n    {        \n\n        Bet[] memory b = new Bet[](bets.length);\n        for (uint i = 0; i < bets.length; i++) {\n            b[i] = bets[i];\n        }\n\n        return (\n            bets.length, // number of active bets\n            bets.length * betAmount, // value of active bets\n            nextRoundTimestamp, // when can we play again\n            address(this).balance, // roulette balance\n            winnings[msg.sender], // winnings of player\n            b\n        );\n    }\n\n    function getWinners() public view returns (Winner[] memory) {\n        Winner[] memory w = new Winner[](winners.length);\n\n        for (uint i = 0; i < winners.length; i++) {\n            w[i] = winners[i];\n        }\n\n        return w;\n    }\n\n    function bet(uint8 number) public payable {\n        require(msg.value == betAmount);\n        require(number >= 0);\n\n        bets.push(Bet({player: msg.sender, number: number}));\n\n        emit MadeBet(msg.sender, number);\n    }\n\n    function spinWheel() public {\n        /* are there any bets? */\n        require(bets.length > 0);\n        /* are we allowed to spin the wheel? */\n        require(block.timestamp > nextRoundTimestamp);\n        /* next time we are allowed to spin the wheel again */\n        nextRoundTimestamp = block.timestamp;\n        /* calculate 'random' number */\n        bytes32 hash = blockhash(block.number - 1);\n        Bet memory lb = bets[bets.length - 1];\n\n        uint256 number = uint256(\n            keccak256(\n                abi.encodePacked(\n                    block.timestamp,\n                    hash,\n                    lb.player,\n                    lb.number\n                )\n            )\n        ) % 37;\n\n        for (uint256 i = 0; i < bets.length; i++) {\n            bool won = false;\n            Bet memory b = bets[i];\n\n            if (b.number == number) {\n                won = true;\n            }\n\n            if (won) {\n                winners.push(Winner({player: b.player, timestamp : block.timestamp, amount: address(this).balance}));\n\n                winnings[b.player] += address(this).balance;\n                payable(b.player).transfer(address(this).balance);\n\n                emit Won(b.player, block.timestamp, address(this).balance);\n            }\n        }\n\n        /* delete all bets */\n        delete bets;\n\n        emit RandomNumber(number);\n    }\n}\n",
  "sourcePath": "/home/lzharskaja@scnsoft.com/PhpstormProjects/eth-roulette-for-blockchain-presentation/contracts/Roulette.sol",
  "compiler": {
    "name": "solc",
    "version": "0.8.13+commit.abaa5c0e.Emscripten.clang"
  },
  "schemaVersion": "3.4.15",
  "updatedAt": "2023-08-10T10:07:50.727Z",
  "networkType": "ethereum",
  "devdoc": {
    "kind": "dev",
    "methods": {},
    "version": 1
  },
  "userdoc": {
    "kind": "user",
    "methods": {},
    "version": 1
  }
}