{
  "contractName": "Roulette",
  "abi": [
    {
      "inputs": [],
      "stateMutability": "payable",
      "type": "constructor",
      "payable": true
    },
    {
      "anonymous": false,
      "inputs": [
        {
          "indexed": true,
          "internalType": "address",
          "name": "_from",
          "type": "address"
        },
        {
          "indexed": false,
          "internalType": "uint256",
          "name": "_value",
          "type": "uint256"
        }
      ],
      "name": "MadeBet",
      "type": "event"
    },
    {
      "anonymous": false,
      "inputs": [
        {
          "indexed": false,
          "internalType": "uint256",
          "name": "number",
          "type": "uint256"
        }
      ],
      "name": "RandomNumber",
      "type": "event"
    },
    {
      "inputs": [
        {
          "internalType": "uint256",
          "name": "",
          "type": "uint256"
        }
      ],
      "name": "bets",
      "outputs": [
        {
          "internalType": "address",
          "name": "player",
          "type": "address"
        },
        {
          "internalType": "uint8",
          "name": "number",
          "type": "uint8"
        }
      ],
      "stateMutability": "view",
      "type": "function",
      "constant": true
    },
    {
      "inputs": [],
      "name": "getStatus",
      "outputs": [
        {
          "internalType": "uint256",
          "name": "",
          "type": "uint256"
        },
        {
          "internalType": "uint256",
          "name": "",
          "type": "uint256"
        },
        {
          "internalType": "uint256",
          "name": "",
          "type": "uint256"
        },
        {
          "internalType": "uint256",
          "name": "",
          "type": "uint256"
        },
        {
          "internalType": "uint256",
          "name": "",
          "type": "uint256"
        },
        {
          "components": [
            {
              "internalType": "address",
              "name": "player",
              "type": "address"
            },
            {
              "internalType": "uint8",
              "name": "number",
              "type": "uint8"
            }
          ],
          "internalType": "struct Roulette.Bet[]",
          "name": "",
          "type": "tuple[]"
        }
      ],
      "stateMutability": "view",
      "type": "function",
      "constant": true
    },
    {
      "inputs": [
        {
          "internalType": "uint8",
          "name": "number",
          "type": "uint8"
        }
      ],
      "name": "bet",
      "outputs": [],
      "stateMutability": "payable",
      "type": "function",
      "payable": true
    },
    {
      "inputs": [],
      "name": "spinWheel",
      "outputs": [],
      "stateMutability": "nonpayable",
      "type": "function"
    }
  ],
  "bytecode": "0x608060405233600260006101000a81548173ffffffffffffffffffffffffffffffffffffffff021916908373ffffffffffffffffffffffffffffffffffffffff16021790555042600181905550662386f26fc10000600081905550610e7c806100696000396000f3fe60806040526004361061003f5760003560e01c806315ecef921461004457806322af00fa1461005b5780634e69d56014610099578063d0821b0e146100c9575b600080fd5b34801561005057600080fd5b506100596100e5565b005b34801561006757600080fd5b50610082600480360381019061007d9190610814565b6103ef565b60405161009092919061089e565b60405180910390f35b3480156100a557600080fd5b506100ae61044c565b6040516100c0969594939291906109d2565b60405180910390f35b6100e360048036038101906100de9190610a66565b610604565b005b6000600680549050116100f757600080fd5b600154421161010557600080fd5b42600181905550600044905060006001436101209190610ac2565b4090506000600660016006805490506101399190610ac2565b8154811061014a57610149610af6565b5b906000526020600020016040518060400160405290816000820160009054906101000a900473ffffffffffffffffffffffffffffffffffffffff1673ffffffffffffffffffffffffffffffffffffffff1673ffffffffffffffffffffffffffffffffffffffff1681526020016000820160149054906101000a900460ff1660ff1660ff1681525050905060006025428585856000015186602001516040516020016101f9959493929190610bef565b6040516020818303038152906040528051906020012060001c61021c9190610c7d565b905060005b6006805490508110156103a3576000806006838154811061024557610244610af6565b5b906000526020600020016040518060400160405290816000820160009054906101000a900473ffffffffffffffffffffffffffffffffffffffff1673ffffffffffffffffffffffffffffffffffffffff1673ffffffffffffffffffffffffffffffffffffffff1681526020016000820160149054906101000a900460ff1660ff1660ff1681525050905083816020015160ff16036102e257600191505b811561038e574760036000836000015173ffffffffffffffffffffffffffffffffffffffff1673ffffffffffffffffffffffffffffffffffffffff168152602001908152602001600020600082825461033b9190610cae565b92505081905550806000015173ffffffffffffffffffffffffffffffffffffffff166108fc479081150290604051600060405180830381858888f1935050505015801561038c573d6000803e3d6000fd5b505b5050808061039b90610d04565b915050610221565b50600660006103b29190610733565b7fec6cdc8e735e4069f6e89062582f3e5532a8e71373e7ef2962fa916cf2af21f2816040516103e19190610d4c565b60405180910390a150505050565b600681815481106103ff57600080fd5b906000526020600020016000915090508060000160009054906101000a900473ffffffffffffffffffffffffffffffffffffffff16908060000160149054906101000a900460ff16905082565b60008060008060006060600060068054905067ffffffffffffffff81111561047757610476610d67565b5b6040519080825280602002602001820160405280156104b057816020015b61049d610754565b8152602001906001900390816104955790505b50905060005b60068054905081101561059057600681815481106104d7576104d6610af6565b5b906000526020600020016040518060400160405290816000820160009054906101000a900473ffffffffffffffffffffffffffffffffffffffff1673ffffffffffffffffffffffffffffffffffffffff1673ffffffffffffffffffffffffffffffffffffffff1681526020016000820160149054906101000a900460ff1660ff1660ff168152505082828151811061057257610571610af6565b5b6020026020010181905250808061058890610d04565b9150506104b6565b506006805490506000546006805490506105aa9190610d96565b60015447600360003373ffffffffffffffffffffffffffffffffffffffff1673ffffffffffffffffffffffffffffffffffffffff168152602001908152602001600020548596509650965096509650965050909192939495565b600054341461061257600080fd5b60008160ff16101561062357600080fd5b600660405180604001604052803373ffffffffffffffffffffffffffffffffffffffff1681526020018360ff168152509080600181540180825580915050600190039060005260206000200160009091909190915060008201518160000160006101000a81548173ffffffffffffffffffffffffffffffffffffffff021916908373ffffffffffffffffffffffffffffffffffffffff16021790555060208201518160000160146101000a81548160ff021916908360ff16021790555050503373ffffffffffffffffffffffffffffffffffffffff167f716a1d648fe060da41f952c8fd593a5f22c99786d071582fa3489b36780d35e3826040516107289190610e2b565b60405180910390a250565b50805460008255906000526020600020908101906107519190610787565b50565b6040518060400160405280600073ffffffffffffffffffffffffffffffffffffffff168152602001600060ff1681525090565b5b808211156107d557600080820160006101000a81549073ffffffffffffffffffffffffffffffffffffffff02191690556000820160146101000a81549060ff021916905550600101610788565b5090565b600080fd5b6000819050919050565b6107f1816107de565b81146107fc57600080fd5b50565b60008135905061080e816107e8565b92915050565b60006020828403121561082a576108296107d9565b5b6000610838848285016107ff565b91505092915050565b600073ffffffffffffffffffffffffffffffffffffffff82169050919050565b600061086c82610841565b9050919050565b61087c81610861565b82525050565b600060ff82169050919050565b61089881610882565b82525050565b60006040820190506108b36000830185610873565b6108c0602083018461088f565b9392505050565b6108d0816107de565b82525050565b600081519050919050565b600082825260208201905092915050565b6000819050602082019050919050565b61090b81610861565b82525050565b61091a81610882565b82525050565b6040820160008201516109366000850182610902565b5060208201516109496020850182610911565b50505050565b600061095b8383610920565b60408301905092915050565b6000602082019050919050565b600061097f826108d6565b61098981856108e1565b9350610994836108f2565b8060005b838110156109c55781516109ac888261094f565b97506109b783610967565b925050600181019050610998565b5085935050505092915050565b600060c0820190506109e760008301896108c7565b6109f460208301886108c7565b610a0160408301876108c7565b610a0e60608301866108c7565b610a1b60808301856108c7565b81810360a0830152610a2d8184610974565b9050979650505050505050565b610a4381610882565b8114610a4e57600080fd5b50565b600081359050610a6081610a3a565b92915050565b600060208284031215610a7c57610a7b6107d9565b5b6000610a8a84828501610a51565b91505092915050565b7f4e487b7100000000000000000000000000000000000000000000000000000000600052601160045260246000fd5b6000610acd826107de565b9150610ad8836107de565b925082821015610aeb57610aea610a93565b5b828203905092915050565b7f4e487b7100000000000000000000000000000000000000000000000000000000600052603260045260246000fd5b6000819050919050565b610b40610b3b826107de565b610b25565b82525050565b6000819050919050565b6000819050919050565b610b6b610b6682610b46565b610b50565b82525050565b60008160601b9050919050565b6000610b8982610b71565b9050919050565b6000610b9b82610b7e565b9050919050565b610bb3610bae82610861565b610b90565b82525050565b60008160f81b9050919050565b6000610bd182610bb9565b9050919050565b610be9610be482610882565b610bc6565b82525050565b6000610bfb8288610b2f565b602082019150610c0b8287610b2f565b602082019150610c1b8286610b5a565b602082019150610c2b8285610ba2565b601482019150610c3b8284610bd8565b6001820191508190509695505050505050565b7f4e487b7100000000000000000000000000000000000000000000000000000000600052601260045260246000fd5b6000610c88826107de565b9150610c93836107de565b925082610ca357610ca2610c4e565b5b828206905092915050565b6000610cb9826107de565b9150610cc4836107de565b9250827fffffffffffffffffffffffffffffffffffffffffffffffffffffffffffffffff03821115610cf957610cf8610a93565b5b828201905092915050565b6000610d0f826107de565b91507fffffffffffffffffffffffffffffffffffffffffffffffffffffffffffffffff8203610d4157610d40610a93565b5b600182019050919050565b6000602082019050610d6160008301846108c7565b92915050565b7f4e487b7100000000000000000000000000000000000000000000000000000000600052604160045260246000fd5b6000610da1826107de565b9150610dac836107de565b9250817fffffffffffffffffffffffffffffffffffffffffffffffffffffffffffffffff0483118215151615610de557610de4610a93565b5b828202905092915050565b6000819050919050565b6000610e15610e10610e0b84610882565b610df0565b6107de565b9050919050565b610e2581610dfa565b82525050565b6000602082019050610e406000830184610e1c565b9291505056fea264697066735822122092b1a46889d1aea62f008ebfe8fe4322a1996165083631b199f327762910554a64736f6c634300080d0033",
  "immutableReferences": {},
  "source": "// SPDX-License-Identifier: MIT\npragma solidity >=0.4.22 <0.9.0;\n\ncontract Roulette {\n    uint256 betAmount;\n    uint256 nextRoundTimestamp;\n    address creator;\n    mapping(address => uint256) winnings;\n    uint8[] payouts;\n    uint8[] numberRange;\n\n    struct Bet {\n        address player;\n        uint8 number;\n    }\n\n    Bet[] public bets;\n\n    constructor() payable {\n        creator = msg.sender;\n        nextRoundTimestamp = block.timestamp;\n        betAmount = 10000000000000000; /* 0.01 ether */\n    }\n\n    event RandomNumber(uint256 number);\n\n    event MadeBet(address indexed _from, uint256 _value);\n\n    function getStatus()\n        public\n        view\n        returns (\n            uint256,\n            uint256,\n            uint256,\n            uint256,\n            uint256,\n            Bet[] memory\n        )\n    {        \n\n        Bet[] memory b = new Bet[](bets.length);\n        for (uint i = 0; i < bets.length; i++) {\n            b[i] = bets[i];\n        }\n\n        return (\n            bets.length, // number of active bets\n            bets.length * betAmount, // value of active bets\n            nextRoundTimestamp, // when can we play again\n            address(this).balance, // roulette balance\n            winnings[msg.sender], // winnings of player\n            b\n        );\n    }\n\n    function bet(uint8 number) public payable {\n        require(msg.value == betAmount);\n        require(number >= 0);\n\n        bets.push(Bet({player: msg.sender, number: number}));\n\n        emit MadeBet(msg.sender, number);\n    }\n\n    function spinWheel() public {\n        /* are there any bets? */\n        require(bets.length > 0);\n        /* are we allowed to spin the wheel? */\n        require(block.timestamp > nextRoundTimestamp);\n        /* next time we are allowed to spin the wheel again */\n        nextRoundTimestamp = block.timestamp;\n        /* calculate 'random' number */\n        uint256 diff = block.difficulty;\n        bytes32 hash = blockhash(block.number - 1);\n        Bet memory lb = bets[bets.length - 1];\n\n        uint256 number = uint256(\n            keccak256(\n                abi.encodePacked(\n                    block.timestamp,\n                    diff,\n                    hash,\n                    lb.player,\n                    lb.number\n                )\n            )\n        ) % 37;\n\n        for (uint256 i = 0; i < bets.length; i++) {\n            bool won = false;\n            Bet memory b = bets[i];\n\n            if (b.number == number) {\n                won = true;\n            }\n\n            if (won) {\n                winnings[b.player] += address(this).balance;\n                payable(b.player).transfer(address(this).balance);\n            }\n        }\n\n        /* delete all bets */\n        delete bets;\n\n        emit RandomNumber(number);\n    }\n}\n",
  "sourcePath": "/Users/belski/Projects/eth-roulette-for-blockchain-presentation/contracts/Roulette.sol",
  "compiler": {
    "name": "solc",
    "version": "0.8.13+commit.abaa5c0e.Emscripten.clang"
  },
  "schemaVersion": "3.4.6",
  "updatedAt": "2022-05-04T13:54:08.923Z",
  "networkType": "ethereum",
  "devdoc": {
    "kind": "dev",
    "methods": {},
    "version": 1
  },
  "userdoc": {
    "kind": "user",
    "methods": {},
    "version": 1
  }
}